:020000020000FC
:100000000AD031E414D132E412D133E410D134E413
:100010000ED135E40CD10F931F932F933F93CF93C1
:10002000DF93CDB7DEB721971FEF10BB11B91127B2
:1000300011BB12B928E93AE313E01A950000E9F779
:1000400021503040C9F708E301BB112712B9000065
:10005000169A000000000000169800000000000042
:1000600024E030E113E01A950000E9F72150304018
:10007000C9F701BB112712B90000169A0000000051
:100080000000169800000000000024E630E013E0B5
:100090001A950000E9F721503040C9F701BB11273C
:1000A00012B90000169A0000000000001698000027
:1000B0000000000001BB112712B90000169A0000D1
:1000C000000000001698000000000000112710BB7F
:1000D00010E212B90000169A0000000000001FB1E3
:1000E000169817FDF7CF000000000000112712B985
:1000F0001FEF10BB00000000000008E001BB11274B
:1001000012B90000169A00000000000016980000C6
:1001100000000000112710BB10E212B90000169A6F
:100120000000000000001FB1169817FDF7CF000077
:1001300000000000112712B91FEF10BB00000000E3
:10014000000001E001BB112712B90000169A00005F
:10015000000000001698000000000000112710BBEE
:1001600010E212B90000169A0000000000001FB152
:10017000169817FDF7CF000000000000112712B9F4
:100180001FEF10BB00000000000006E001BB1127BC
:1001900012B90000169A0000000000001698000036
:1001A00000000000112710BB10E212B90000169ADF
:1001B0000000000000001FB1169817FDF7CF0000E7
:1001C00000000000112712B91FEF10BB0000000053
:1001D00000000FE001BB112712B90000169A0000C1
:1001E000000000001698000000000000112710BB5E
:1001F00010E212B90000169A0000000000001FB1C2
:10020000169817FDF7CF000000000000112712B963
:100210001FEF10BB0000000000002196DEBFCDBF25
:10022000DF91CF913F912F911F910F9108950F93DF
:100230001F93CF93DF93CDB7DEB72197032F1127FD
:1002400010BB10E212B90000169A00000000000076
:100250001FB1169817FDF7CF00000000000011270E
:1002600012B91FEF10BB00000000000031BB10E806
:1002700012B90000169A0000000000001698000055
:10028000000000002196DEBFCDBFDF91CF911F910E
:040290000F9108952D
:00000001FF
