:020000020000FC
:10000000CCD004E0402E00EF07B90FE004B933274D
:10001000AA24BB24CC2422242FE7241414F02FE795
:10002000222428B90FEF0A95F1F706B10F700F30AF
:1000300099F0502E332418E0052D012349F4EFEFF9
:10004000FFEF0000E150F040E1F706B1012341F07D
:1000500016953394341481F7269520682394DDCFC8
:10006000330C330C032D020DF1E0EEE1FF24E00F21
:10007000FF1D0491033419F42FEF522748C030308C
:1000800021F03130B1F0323041F1093044F46A2CC2
:10009000660C660C660CAA0CA60CA00E34C00A32C4
:1000A00091F53395333024F03327AA24BB24CC2494
:1000B0002AC0093044F46B2C660C660C660CBB0C31
:1000C000B60CB00E20C00434F1F43395333024F074
:1000D0003327AA24BB24CC2416C0093044F46C2C4A
:1000E000660C660C660CCC0CC60CC00E0CC0033241
:1000F00051F425D0913059F43395333024F033271F
:10010000AA24BB24CC2406B10123E9F384CF45D033
:10011000503011F0FAD101C04CD1F5CFFFCF010220
:10012000034104050642070809432A0023443132EB
:10013000334134353642373839432A302344CF935C
:10014000DF93EF93FF930F931F9388279927002442
:10015000CDB7DEB7CF92BF92AF920F911F91010240
:10016000112031F407FC04C0802D0F91801B0EC0BC
:100170000FEF05B910E2EFEFFFEF0000E150F040A4
:10018000E1F71A95C1F7002705B991E01F910F918A
:10019000FF91EF91DF91CF9108950F931F932F93CC
:1001A0003F93CF93DF93CDB7DEB721971FEF10BBFF
:1001B00011B9112711BB12B928E93AE313E01A95D6
:1001C0000000E9F721503040C9F708E301BB2227BE
:1001D00022B90000169A00000000000016980000E6
:1001E0000000000024E030E113E01A950000E9F778
:1001F00021503040C9F701BB222722B90000169ACE
:10020000000000000000169800000000000024E636
:1002100030E013E01A950000E9F721503040C9F7AB
:1002200001BB222722B90000169A0000000000003E
:10023000169800000000000001BB222722B9000030
:10024000169A000000000000169800000000000050
:10025000222710BB20E222B90000169A00000000FD
:1002600000002FB1169827FDF7CF00000000000016
:10027000222722B92FEF20BB00000000000008E079
:1002800001BB222722B90000169A000000000000DE
:100290001698000000000000222710BB20E222B9BF
:1002A0000000169A0000000000002FB1169827FDEC
:1002B000F7CF000000000000222722B92FEF20BB5B
:1002C00000000000000001E001BB222722B900006D
:1002D000169A0000000000001698000000000000C0
:1002E000222710BB20E222B90000169A000000006D
:1002F00000002FB1169827FDF7CF00000000000086
:10030000222722B92FEF20BB00000000000006E0EA
:1003100001BB222722B90000169A0000000000004D
:100320001698000000000000222710BB20E222B92E
:100330000000169A0000000000002FB1169827FD5B
:10034000F7CF000000000000222722B92FEF20BBCA
:100350000000000000000FE001BB222722B90000CE
:10036000169A00000000000016980000000000002F
:10037000222710BB20E222B90000169A00000000DC
:1003800000002FB1169827FDF7CF000000000000F5
:10039000222722B92FEF20BB000000000000219689
:1003A000DEBFCDBFDF91CF913F912F911F910F9174
:1003B000089570E3A82FAA232AF5BDE2B1BB20E877
:1003C00022B90000169A00000000000016980000F4
:1003D00000000000222710BB20E222B90000169A7C
:1003E0000000000000002FB1169827FDF7CF000095
:1003F00000000000222722B92FEF20BB00000000E0
:100400000000A195C4E678D0BD2FB03009F424C017
:10041000B70FB1BB20E822B90000169A0000000017
:1004200000001698000000000000222710BB20E208
:1004300022B90000169A0000000000002FB11698A3
:1004400027FDF7CF000000000000222722B92FEF80
:1004500020BB000000000000CAE04ED0BD2FB0302D
:1004600009F424C0B70FB1BB20E822B90000169AE6
:100470000000000000001698000000000000222785
:1004800010BB20E222B90000169A00000000000014
:100490002FB1169827FDF7CF00000000000022279B
:1004A00022B92FEF20BB000000000000E70FBE2F95
:1004B000B1BB20E822B90000169A0000000000003D
:1004C0001698000000000000222710BB20E222B98D
:1004D0000000169A0000000000002FB1169827FDBA
:1004E000F7CF000000000000222722B92FEF20BB29
:1004F0000000000000000895DD27EE27AC1718F07B
:10050000AC1BD395FBCFEA2F0895D82FB0E3B1BB36
:1005100020E822B90000169A00000000000016989A
:10052000000000000000222710BB20E222B90000DA
:10053000169A0000000000002FB1169827FDF7CF93
:10054000000000000000222722B92FEF20BB00008E
:1005500000000000B8E7B1BB20E822B90000169AFD
:100560000000000000001698000000000000222794
:1005700010BB20E222B90000169A00000000000023
:100580002FB1169827FDF7CF0000000000002227AA
:1005900022B92FEF20BB000000000000BD2FB69550
:1005A000B695B695B695BF704AD0B1BB20E822B9D2
:1005B0000000169A000000000000169800000000DD
:1005C0000000222710BB20E222B90000169A00008A
:1005D000000000002FB1169827FDF7CF00000000A3
:1005E0000000222722B92FEF20BB000000000000EE
:1005F000BD2FBF7024D0B1BB20E822B90000169AED
:1006000000000000000016980000000000002227F3
:1006100010BB20E222B90000169A00000000000082
:100620002FB1169827FDF7CF000000000000222709
:1006300022B92FEF20BB0000000000000895A7E3BF
:0E064000BA3010F0BA0F02C070E3B70F089581
:00000001FF
