:020000020000FC
:1000000004E0402E00EF07B90FE004B93327AA241B
:10001000BB24CC2422242FE7241414F02FE722241D
:1000200028B90FEF0A95F1F706B10F700F3099F06C
:10003000502E332418E0052D012349F4EFEFFFEF94
:100040000000E150F040E1F706B1012341F01695C0
:100050003394341481F7269520682394DDCF330C34
:10006000330C032D020DF1E0E0E0FF24E00FFF1D53
:100070000491303021F03130B1F0323041F10930AB
:1000800044F46A2C660C660C660CAA0CA60CA00E36
:1000900032C00A3281F53395333024F03327AA2455
:1000A000BB24CC2428C0093044F46B2C660C660CAD
:1000B000660CBB0CB60CB00E1EC00434E1F43395D4
:1000C000333024F03327AA24BB24CC2414C00930B5
:1000D00044F46C2C660C660C660CCC0CC60CC00E82
:1000E0000AC0033241F41CD03395333024F0332757
:1000F000AA24BB24CC2406B10123E9F38BCFFFCF84
:100100000102034104050642070809432A0023446B
:100110003132334134353642373839432A3023447B
:10012000CF93DF93EF93FF930F931F938827992724
:10013000CDB7DEB7CF92BF92AF920F911F91010260
:10014000112031F407FC04C0802D0F91801B0EC0DC
:100150000FEF05B910E2EFEFFFEF0000E150F040C4
:10016000E1F71A95C1F7002705B991E01F910F91AA
:0A017000FF91EF91DF91CF91089508
:00000001FF
